{
	"data": {
		"bytecode": {
			"linkReferences": {},
			"object": "608060405234801561001057600080fd5b50610360806100206000396000f3fe608060405234801561001057600080fd5b5060043610610048576000357c0100000000000000000000000000000000000000000000000000000000900480632d7371131461004d575b600080fd5b610067600480360381019061006291906101b7565b610080565b60405161007794939291906102e5565b60405180910390f35b60008060008060016103e86107d0606493509350935093509b509b509b509b975050505050505050565b600080fd5b600073ffffffffffffffffffffffffffffffffffffffff82169050919050565b60006100da826100af565b9050919050565b6100ea816100cf565b81146100f557600080fd5b50565b600081359050610107816100e1565b92915050565b600062ffffff82169050919050565b6101258161010d565b811461013057600080fd5b50565b6000813590506101428161011c565b92915050565b60008160020b9050919050565b61015e81610148565b811461016957600080fd5b50565b60008135905061017b81610155565b92915050565b6000819050919050565b61019481610181565b811461019f57600080fd5b50565b6000813590506101b18161018b565b92915050565b60008060008060008060008060008060006101608c8e0312156101dd576101dc6100aa565b5b60006101eb8e828f016100f8565b9b505060206101fc8e828f016100f8565b9a5050604061020d8e828f01610133565b995050606061021e8e828f0161016c565b985050608061022f8e828f0161016c565b97505060a06102408e828f016101a2565b96505060c06102518e828f016101a2565b95505060e06102628e828f016101a2565b9450506101006102748e828f016101a2565b9350506101206102868e828f016100f8565b9250506101406102988e828f016101a2565b9150509295989b509295989b9093969950565b6102b481610181565b82525050565b60006fffffffffffffffffffffffffffffffff82169050919050565b6102df816102ba565b82525050565b60006080820190506102fa60008301876102ab565b61030760208301866102ab565b61031460408301856102ab565b61032160608301846102d6565b9594505050505056fea2646970667358221220b13bdba678966710ce8e88e79f996360c2bc4eca72f09f243899fedcd436d4fc64736f6c63430008140033",
			"opcodes": "PUSH1 0x80 PUSH1 0x40 MSTORE CALLVALUE DUP1 ISZERO PUSH2 0x10 JUMPI PUSH1 0x0 DUP1 REVERT JUMPDEST POP PUSH2 0x360 DUP1 PUSH2 0x20 PUSH1 0x0 CODECOPY PUSH1 0x0 RETURN INVALID PUSH1 0x80 PUSH1 0x40 MSTORE CALLVALUE DUP1 ISZERO PUSH2 0x10 JUMPI PUSH1 0x0 DUP1 REVERT JUMPDEST POP PUSH1 0x4 CALLDATASIZE LT PUSH2 0x48 JUMPI PUSH1 0x0 CALLDATALOAD PUSH29 0x100000000000000000000000000000000000000000000000000000000 SWAP1 DIV DUP1 PUSH4 0x2D737113 EQ PUSH2 0x4D JUMPI JUMPDEST PUSH1 0x0 DUP1 REVERT JUMPDEST PUSH2 0x67 PUSH1 0x4 DUP1 CALLDATASIZE SUB DUP2 ADD SWAP1 PUSH2 0x62 SWAP2 SWAP1 PUSH2 0x1B7 JUMP JUMPDEST PUSH2 0x80 JUMP JUMPDEST PUSH1 0x40 MLOAD PUSH2 0x77 SWAP5 SWAP4 SWAP3 SWAP2 SWAP1 PUSH2 0x2E5 JUMP JUMPDEST PUSH1 0x40 MLOAD DUP1 SWAP2 SUB SWAP1 RETURN JUMPDEST PUSH1 0x0 DUP1 PUSH1 0x0 DUP1 PUSH1 0x1 PUSH2 0x3E8 PUSH2 0x7D0 PUSH1 0x64 SWAP4 POP SWAP4 POP SWAP4 POP SWAP4 POP SWAP12 POP SWAP12 POP SWAP12 POP SWAP12 SWAP8 POP POP POP POP POP POP POP POP JUMP JUMPDEST PUSH1 0x0 DUP1 REVERT JUMPDEST PUSH1 0x0 PUSH20 0xFFFFFFFFFFFFFFFFFFFFFFFFFFFFFFFFFFFFFFFF DUP3 AND SWAP1 POP SWAP2 SWAP1 POP JUMP JUMPDEST PUSH1 0x0 PUSH2 0xDA DUP3 PUSH2 0xAF JUMP JUMPDEST SWAP1 POP SWAP2 SWAP1 POP JUMP JUMPDEST PUSH2 0xEA DUP2 PUSH2 0xCF JUMP JUMPDEST DUP2 EQ PUSH2 0xF5 JUMPI PUSH1 0x0 DUP1 REVERT JUMPDEST POP JUMP JUMPDEST PUSH1 0x0 DUP2 CALLDATALOAD SWAP1 POP PUSH2 0x107 DUP2 PUSH2 0xE1 JUMP JUMPDEST SWAP3 SWAP2 POP POP JUMP JUMPDEST PUSH1 0x0 PUSH3 0xFFFFFF DUP3 AND SWAP1 POP SWAP2 SWAP1 POP JUMP JUMPDEST PUSH2 0x125 DUP2 PUSH2 0x10D JUMP JUMPDEST DUP2 EQ PUSH2 0x130 JUMPI PUSH1 0x0 DUP1 REVERT JUMPDEST POP JUMP JUMPDEST PUSH1 0x0 DUP2 CALLDATALOAD SWAP1 POP PUSH2 0x142 DUP2 PUSH2 0x11C JUMP JUMPDEST SWAP3 SWAP2 POP POP JUMP JUMPDEST PUSH1 0x0 DUP2 PUSH1 0x2 SIGNEXTEND SWAP1 POP SWAP2 SWAP1 POP JUMP JUMPDEST PUSH2 0x15E DUP2 PUSH2 0x148 JUMP JUMPDEST DUP2 EQ PUSH2 0x169 JUMPI PUSH1 0x0 DUP1 REVERT JUMPDEST POP JUMP JUMPDEST PUSH1 0x0 DUP2 CALLDATALOAD SWAP1 POP PUSH2 0x17B DUP2 PUSH2 0x155 JUMP JUMPDEST SWAP3 SWAP2 POP POP JUMP JUMPDEST PUSH1 0x0 DUP2 SWAP1 POP SWAP2 SWAP1 POP JUMP JUMPDEST PUSH2 0x194 DUP2 PUSH2 0x181 JUMP JUMPDEST DUP2 EQ PUSH2 0x19F JUMPI PUSH1 0x0 DUP1 REVERT JUMPDEST POP JUMP JUMPDEST PUSH1 0x0 DUP2 CALLDATALOAD SWAP1 POP PUSH2 0x1B1 DUP2 PUSH2 0x18B JUMP JUMPDEST SWAP3 SWAP2 POP POP JUMP JUMPDEST PUSH1 0x0 DUP1 PUSH1 0x0 DUP1 PUSH1 0x0 DUP1 PUSH1 0x0 DUP1 PUSH1 0x0 DUP1 PUSH1 0x0 PUSH2 0x160 DUP13 DUP15 SUB SLT ISZERO PUSH2 0x1DD JUMPI PUSH2 0x1DC PUSH2 0xAA JUMP JUMPDEST JUMPDEST PUSH1 0x0 PUSH2 0x1EB DUP15 DUP3 DUP16 ADD PUSH2 0xF8 JUMP JUMPDEST SWAP12 POP POP PUSH1 0x20 PUSH2 0x1FC DUP15 DUP3 DUP16 ADD PUSH2 0xF8 JUMP JUMPDEST SWAP11 POP POP PUSH1 0x40 PUSH2 0x20D DUP15 DUP3 DUP16 ADD PUSH2 0x133 JUMP JUMPDEST SWAP10 POP POP PUSH1 0x60 PUSH2 0x21E DUP15 DUP3 DUP16 ADD PUSH2 0x16C JUMP JUMPDEST SWAP9 POP POP PUSH1 0x80 PUSH2 0x22F DUP15 DUP3 DUP16 ADD PUSH2 0x16C JUMP JUMPDEST SWAP8 POP POP PUSH1 0xA0 PUSH2 0x240 DUP15 DUP3 DUP16 ADD PUSH2 0x1A2 JUMP JUMPDEST SWAP7 POP POP PUSH1 0xC0 PUSH2 0x251 DUP15 DUP3 DUP16 ADD PUSH2 0x1A2 JUMP JUMPDEST SWAP6 POP POP PUSH1 0xE0 PUSH2 0x262 DUP15 DUP3 DUP16 ADD PUSH2 0x1A2 JUMP JUMPDEST SWAP5 POP POP PUSH2 0x100 PUSH2 0x274 DUP15 DUP3 DUP16 ADD PUSH2 0x1A2 JUMP JUMPDEST SWAP4 POP POP PUSH2 0x120 PUSH2 0x286 DUP15 DUP3 DUP16 ADD PUSH2 0xF8 JUMP JUMPDEST SWAP3 POP POP PUSH2 0x140 PUSH2 0x298 DUP15 DUP3 DUP16 ADD PUSH2 0x1A2 JUMP JUMPDEST SWAP2 POP POP SWAP3 SWAP6 SWAP9 SWAP12 POP SWAP3 SWAP6 SWAP9 SWAP12 SWAP1 SWAP4 SWAP7 SWAP10 POP JUMP JUMPDEST PUSH2 0x2B4 DUP2 PUSH2 0x181 JUMP JUMPDEST DUP3 MSTORE POP POP JUMP JUMPDEST PUSH1 0x0 PUSH16 0xFFFFFFFFFFFFFFFFFFFFFFFFFFFFFFFF DUP3 AND SWAP1 POP SWAP2 SWAP1 POP JUMP JUMPDEST PUSH2 0x2DF DUP2 PUSH2 0x2BA JUMP JUMPDEST DUP3 MSTORE POP POP JUMP JUMPDEST PUSH1 0x0 PUSH1 0x80 DUP3 ADD SWAP1 POP PUSH2 0x2FA PUSH1 0x0 DUP4 ADD DUP8 PUSH2 0x2AB JUMP JUMPDEST PUSH2 0x307 PUSH1 0x20 DUP4 ADD DUP7 PUSH2 0x2AB JUMP JUMPDEST PUSH2 0x314 PUSH1 0x40 DUP4 ADD DUP6 PUSH2 0x2AB JUMP JUMPDEST PUSH2 0x321 PUSH1 0x60 DUP4 ADD DUP5 PUSH2 0x2D6 JUMP JUMPDEST SWAP6 SWAP5 POP POP POP POP POP JUMP INVALID LOG2 PUSH5 0x6970667358 0x22 SLT KECCAK256 0xB1 EXTCODESIZE 0xDB 0xA6 PUSH25 0x966710CE8E88E79F996360C2BC4ECA72F09F243899FEDCD436 0xD4 0xFC PUSH5 0x736F6C6343 STOP ADDMOD EQ STOP CALLER "
		},
		"gasEstimates": {
			"creation": {
				"codeDepositCost": "172800",
				"executionCost": "214",
				"totalCost": "173014"
			},
			"external": {
				"mint(address,address,uint24,int24,int24,uint256,uint256,uint256,uint256,address,uint256)": "infinite"
			}
		},
		"methodIdentifiers": {
			"mint(address,address,uint24,int24,int24,uint256,uint256,uint256,uint256,address,uint256)": "2d737113"
		}
	},
	"abi": [
		{
			"inputs": [
				{
					"internalType": "address",
					"name": "",
					"type": "address"
				},
				{
					"internalType": "address",
					"name": "",
					"type": "address"
				},
				{
					"internalType": "uint24",
					"name": "",
					"type": "uint24"
				},
				{
					"internalType": "int24",
					"name": "",
					"type": "int24"
				},
				{
					"internalType": "int24",
					"name": "",
					"type": "int24"
				},
				{
					"internalType": "uint256",
					"name": "",
					"type": "uint256"
				},
				{
					"internalType": "uint256",
					"name": "",
					"type": "uint256"
				},
				{
					"internalType": "uint256",
					"name": "",
					"type": "uint256"
				},
				{
					"internalType": "uint256",
					"name": "",
					"type": "uint256"
				},
				{
					"internalType": "address",
					"name": "",
					"type": "address"
				},
				{
					"internalType": "uint256",
					"name": "",
					"type": "uint256"
				}
			],
			"name": "mint",
			"outputs": [
				{
					"internalType": "uint256",
					"name": "tokenId",
					"type": "uint256"
				},
				{
					"internalType": "uint256",
					"name": "amount0",
					"type": "uint256"
				},
				{
					"internalType": "uint256",
					"name": "amount1",
					"type": "uint256"
				},
				{
					"internalType": "uint128",
					"name": "liquidity",
					"type": "uint128"
				}
			],
			"stateMutability": "pure",
			"type": "function"
		}
	]
}